:020000040800F2
:1000000000000220110F0008610F0008610F0008B6
:10001000610F0008610F0008610F00080000000078
:10002000000000000000000000000000610F000858
:10003000610F000800000000610F0008390D000882
:10004000610F0008610F0008610F0008610F0008D0
:10005000610F0008610F0008610F0008610F0008C0
:10006000610F0008610F0008610F0008610F0008B0
:10007000610F0008610F0008610F0008610F0008A0
:10008000610F0008610F0008610F0008610F000890
:10009000610F0008610F0008610F0008610F000880
:1000A000610F0008610F0008610F0008610F000870
:1000B000610F0008610F0008610F0008610F000860
:1000C000610F0008610F0008610F0008610F000850
:1000D000610F0008610F0008450D0008610F00085E
:1000E000610F0008610F0008610F0008610F000830
:1000F000610F0008610F0008610F0008610F000820
:10010000610F0008610F0008610F0008610F00080F
:10011000610F0008610F0008610F0008610F0008FF
:10012000610F0008610F0008610F0008610F0008EF
:10013000610F00080000000000000000610F0008CF
:10014000610F0008610F0008610F0008610F0008CF
:10015000610F0008610F0008610F0008610F0008BF
:10016000610F0008610F0008610F0008610F0008AF
:10017000610F0008610F0008610F00080000000017
:1001800000000000610F00080000000000000000F7
:10019000610F00080000000000000000610F00086F
:1001A000000000000000000000000000610F0008D7
:1001B000610F0008610F0008610F0008610F00085F
:0401C000610F0008C3
:1001C40010B5054C237833B9044B13B10448AFF38D
:1001D40000800123237010BD0C00002000000000EB
:1001E400AC0F000808B5034B1BB103490348AFF338
:1001F400008008BD0000000010000020AC0F0008C3
:1002040010B504460E4B18784FF47A73B3FBF0F331
:100214000C4A1068B0FBF3F000F094F868B90F2CA6
:1002240001D901200AE0002221464FF0FF3000F0FE
:1002340049F8034B5C60002000E0012010BD00BFC2
:10024400000000200800002008B50B4B1A6842F497
:1002540000721A601A6842F480621A601A6842F4E2
:1002640080721A60032000F01BF80020FFF7C8FF1B
:1002740000F0D2FD002008BD003C0240034A116892
:10028400034B1B780B441360704700BF90000020A1
:1002940000000020014B1868704700BF9000002048
:1002A400074AD36823F4E0631B041B0C000200F428
:1002B400E060184340F0BF6040F40030D060704705
:1002C40000ED00E030B4174BDB68C3F30223C3F145
:1002D4000704042C28BF04241D1D062D18D9033B34
:1002E4004FF0FF3505FA04F421EA0401994005FAB8
:1002F40003F322EA0303194300280BDB0901C9B203
:1003040000F1604000F5614080F8001330BC704794
:100314000023E5E700F00F000901C9B2024B1954AC
:10032400F4E700BF00ED00E014ED00E000F01F0270
:10033400400901239340024A42F82030704700BF2D
:1003440000E100E00138B0F1807F0AD2064B58602A
:10035400064AF02182F823100020986007221A60D0
:1003640070470120704700BF10E000E000ED00E09E
:10037400704708B5FFF7FCFF08BD90F83530DBB2D5
:10038400022B03D08023436501207047052380F8A6
:1003940035300268136823F00103136000207047AE
:1003A40000230F2B00F2D180F0B482B039E0062292
:1003B40000E00022B2403A430234644E46F824205E
:1003C400634A1468EA4302EA04064F6817F4803F5C
:1003D40001D045EA04065E4C2660646802EA04061D
:1003E4004F6817F4003F01D045EA0406584C666094
:1003F400A46802EA04064F6817F4801F01D045EA96
:100404000406534CA660E46822404E6816F4001FAC
:1004140001D045EA04024E4CE26001330F2B00F296
:10042400918001229A400C6804EA0205AA42F4D1A0
:100434004C68022C01D0122C10D1DE08083650F87A
:1004440026C003F00704A7000F24BC402CEA040CC8
:100454000C69BC4044EA0C0440F8264004685F0080
:100464000326BE40F64306EA040C4C6804F0030479
:10047400BC4044EA0C0404604C6804F1FF3CBCF149
:10048400010F03D9112C01D0122C10D1846806EA73
:10049400040CCC68BC4044EA0C048460446824EA3C
:1004A40002024C68C4F300149C4014434460C268C4
:1004B40016408A68BA403243C2604A6812F0805FCC
:1004C400ABD000220192234A546C44F48044546417
:1004D400526C02F480420192019A9C08A61C1B4AA9
:1004E40052F8267003F0030296000F22B24027EA66
:1004F4000207194A90423FF45CAF02F580629042D1
:1005040016D002F58062904214D002F580629042C7
:1005140012D002F58062904210D002F580629042BF
:100524000ED002F5806290423FF441AF072241E7CA
:1005340001223FE702223DE703223BE7042239E799
:10054400052237E702B0F0BC70477047003801401D
:10055400003C01400038024000000240014B186892
:10056400704700BF0800002008B5FFF7F7FF044BF1
:100574009B68C3F38223034AD35CD84008BD00BF01
:1005840000380240D40F000808B5FFF7E7FF044B1A
:100594009B68C3F34233034AD35CD84008BD00BF11
:1005A40000380240D40F00080268D36823F4907323
:1005B400D3600268536923F001035361202380F858
:1005C4003A30704790F83930DBB2212B2AD1836856
:1005D400B3F5805F16D0036A5A1C02621A78036866
:1005E4005A60C38C013B9BB2C384EBB90268D368E5
:1005F40023F08003D3600268D36843F04003D360E0
:1006040000207047036A1B880268C3F30803536021
:1006140003691BB9036A02330362E2E7036A013325
:100624000362DEE702207047002070472DE9F8439B
:10063400044601680A6922F44052C36813430B61FB
:100644000168CA6822F4164222F00C028368006929
:10065400034360690343E06903431343CB602168A8
:100664004A6922F44072A36913434B61E369B3F509
:10067400004F60D02368B84A934200F0148102F519
:100684008062934200F00F81FFF76EFF00EB800061
:1006940000EB80006568AD00B0FBF5F5AF4FA7FB3C
:1006A40005356D092E01FFF75FFF00EB800000EBBD
:1006B40080006568AD00B0FBF5F9FFF755FF00EB6E
:1006C400800000EB80006568AD00B0FBF5F5A7FB8A
:1006D40005356D094FF0640808FB15952D01323579
:1006E400A7FB05356D0905F0F0053544FFF73CFF20
:1006F40000EB800000EB80006668B600B0FBF6F605
:10070400FFF732FF00EB800000EB800063689B0082
:10071400B0FBF3F0A7FB0030400908FB10684FEA78
:10072400081808F13208A7FB0837C7F343172368F2
:100734002F449F600DE12368874A93425BD002F502
:100744008062934257D0FFF70FFF00EB800000EB6D
:10075400800065686D00B0FBF5F5804FA7FB05359B
:100764006D092E01FFF700FF00EB800000EB800015
:1007740065686D00B0FBF5F9FFF7F6FE00EB80004D
:1007840000EB800065686D00B0FBF5F5A7FB05354F
:100794006D094FF0640808FB1595ED003235A7FB91
:1007A40005356D096D0005F4F8753544FFF7DCFE79
:1007B40000EB800000EB800066687600B0FBF6F684
:1007C400FFF7D2FE00EB800000EB800063685B0063
:1007D400B0FBF3F3A7FB03235B0908FB13684FEAA1
:1007E400C80808F13208A7FB0837C7F34217236883
:1007F4002F449F60ADE0FFF7C7FE00EB800000EBE5
:10080400800065686D00B0FBF5F5544FA7FB053516
:100814006D092E01FFF7B8FE00EB800000EB8000AD
:1008240065686D00B0FBF5F9FFF7AEFE00EB8000E4
:1008340000EB800065686D00B0FBF5F5A7FB05359E
:100844006D094FF0640808FB1595ED003235A7FBE0
:1008540005356D096D0005F4F8753544FFF794FE10
:1008640000EB800000EB800066687600B0FBF6F6D3
:10087400FFF78AFE00EB800000EB800063685B00FA
:10088400B0FBF3F3A7FB03235B0908FB13684FEAF0
:10089400C80808F13208A7FB0837C7F342172368D2
:1008A4002F449F6055E0FFF76FFE00EB800000EBE4
:1008B40080006568AD00B0FBF5F5284FA7FB053552
:1008C4006D092E01FFF760FE00EB800000EB800055
:1008D4006568AD00B0FBF5F9FFF756FE00EB80004C
:1008E40000EB80006568AD00B0FBF5F5A7FB0535AE
:1008F4006D094FF0640808FB15952D013235A7FBEF
:1009040005356D0905F0F0053544FFF73DFE00EBB4
:10091400800000EB80006668B600B0FBF6F6FFF7D7
:1009240033FE00EB800000EB800063689B00B0FBAB
:10093400F3F0A7FB0030400908FB10684FEA0818E1
:1009440008F13208A7FB0837C7F3431723682F447D
:100954009F60BDE8F88300BF001001401F85EB5184
:100964002DE9F04105460F4616469846069C2B682D
:100974001B6837EA03030CBF01230023B3421DD1D4
:10098400B4F1FF3FF3D02CB1FFF784FCA0EB0800D7
:10099400A042ECD92A68D36823F4D073D3602A68C0
:1009A400536923F001035361202385F8393085F816
:1009B4003A30002385F83830032000E00020BDE8F9
:1009C400F08158B310B5044690F839300BB32423A2
:1009D40084F839302268D36823F40053D360204666
:1009E400FFF724FE2268136923F4904313612268FD
:1009F400536923F02A0353612268D36843F40053F4
:100A0400D3600020E063202384F8393084F83A303E
:100A140010BD80F8383000F01DFAD8E70120704787
:100A24002DE9F04182B01E4690F83930DBB2202B1C
:100A340055D104460D469046002955D0002A55D07C
:100A440090F83830012B53D0012380F8383000233C
:100A5400C363212380F83930FFF71CFC0746A4F850
:100A64002480A4F8268010E000963B4600228021D2
:100A74002046FFF775FF00283CD12B882268C3F37A
:100A8400080353602369C3B90235E38C9BB2B3B145
:100A9400E38C013B9BB2E384A368B3F5805FE3D0AE
:100AA40000963B46002280212046FFF759FF18BBE1
:100AB4002A7823685A600135E7E70135E5E70096AF
:100AC4003B46002240212046FFF74AFF0346A8B9CF
:100AD400202284F83920002284F8382000E0022300
:100AE400184602B0BDE8F0810123F9E70123F7E7D6
:100AF4000223F5E70323F3E70323F1E70323EFE7F7
:100B040090F83A30DBB2202B1BD1E1B1EAB190F876
:100B14003830012B1BD081628285C2850023C363D8
:100B2400222280F83A2080F8383001684A6942F07D
:100B340001024A610168CA6842F49072CA601846A8
:100B4400704702207047012070470120704702203F
:100B54007047704708B50168CB6823F04003CB6049
:100B6400202380F83930FFF7F4FF002008BD08B5D2
:100B740090F83A30DBB2222B40D18368B3F5805F22
:100B84000ED0036903BB03685A68836A591C8162E7
:100B94001A70C38D013B9BB2C385F3B100202EE0D4
:100BA400826A036943B903685B68C3F3080313806B
:100BB400836A02338362ECE703685B68DBB2138009
:100BC400836A01338362E4E703685B68826A511CC9
:100BD400816203F07F031370DBE70268D36823F4B8
:100BE4009073D3600268536923F001035361202397
:100BF40080F83A3000F0F2F8002000E0022008BD4E
:100C04007047000010B5044602681368D168526941
:100C140013F00F0005D113F0200F02D011F0200FB4
:100C240053D1002867D012F0010202D111F4907F51
:100C340061D013F0010F06D011F4807F03D0E06B74
:100C440040F00100E06313F0040F04D01AB1E06B2C
:100C540040F00200E06313F0020F04D01AB1E06B1D
:100C640040F00400E06313F0080F04D01AB1E26B03
:100C740042F00802E263E26B002A48D013F0200F2E
:100C840002D011F0200F24D123685B6903F04003E4
:100C9400E26B12F0080F00D13BB32046FFF784FC4F
:100CA40023685A6912F0400F1BD05A6922F040029F
:100CB4005A61636B8BB11A4A1A65606BFFF75DFB6F
:100CC40028B3606B036D984721E02046FFF74FFF80
:100CD4001DE02046FFF74BFFD6E72046FFF790FFC5
:100CE40015E02046FFF78CFF11E02046FFF788FF50
:100CF4000023E3630BE013F0800F02D011F0800FA8
:100D040006D113F0400F02D011F0400F04D110BDF2
:100D14002046FFF757FCFAE72046FFF71BFFF6E7EC
:100D2400290D000808B5806B0023C385C384FFF731
:100D340067FF08BD08B5FFF7A1FAFFF71AFB08BD66
:100D440008B50248FFF75EFF08BD00BF940000200D
:100D5400A0F16103DBB2192B01D82038C0B270476F
:100D6400FEE7000008B50B480B4B03604FF4E1337A
:100D74004360002383610C2242614FF40042C2614C
:100D84000361C3608360FFF71CFE00B908BDFFF771
:100D9400E7FF00BF940000200044004008B5FFF7BF
:100DA40053FAFFF7DFFF4FF0FF331B2208490948CE
:100DB400FFF736FE08B1FFF7D3FF012206490548C5
:100DC400FFF79EFE012204490248FFF799FEF9E766
:100DD400DC0F00089400002028000020F8B50C4C1B
:100DE400267867887D1CADB265803046FFF7B0FF7A
:100DF4003C4420710D2E00D0F8BD054C4FF0FF335C
:100E04002A46211D0348FFF70BFE00236380F3E706
:100E1400280000209400002008B50320FFF740FAC2
:100E24000B4A536A43F4E0235362002211466FF0E5
:100E34000B00FFF747FA002211466FF00A00FFF794
:100E440041FA002211466FF00900FFF73BFA08BD92
:100E540000ED00E010B588B000220192164B196C29
:100E640041F400311964196C01F4003101910199C4
:100E74000292196B41F0010119631B6B03F001032A
:100E84000293029B042303930223049301230593F7
:100E9400069207230793094C03A92046FFF780FA1B
:100EA4000823039303A92046FFF77AFA2620FFF7C5
:100EB4003DFA08B010BD00BF0038024000000240F7
:100EC4000F49D1F8883043F47003C1F888300D4BD2
:100ED4001A6842F001021A60002098601A6822F031
:100EE400847222F480321A60074A5A601A6822F423
:100EF40080221A60D8604FF000638B60704700BF97
:100F040000ED00E00038024010300024DFF834D057
:100F1400002103E00C4B5B58435004310B480C4B4D
:100F240042189A42F6D30B4A02E0002342F8043BEB
:100F3400094B9A42F9D3FFF7C3FF00F011F8FFF70A
:100F44002DFF704700000220001000080000002060
:100F54000C0000200C000020D4000020FEE700005C
:100F640070B50D4E0D4CA41BA4100025A54209D14B
:100F74000B4E0C4C00F018F8A41BA4100025A5423D
:100F840005D170BD56F8253098470135EEE756F87F
:100F9400253098470135F2E7F80F0008F80F0008EC
:100FA400F80F0008FC0F0008F8B500BFF8BC08BC37
:100FB4009E467047F8B500BFF8BC08BC9E46704713
:100FC40000000000000000000102030406070809F5
:100FD4000000000001020304546865206170706C15
:100FE40069636174696F6E2069732072756E6E69CE
:040FF4006E670D0017
:040FF800E901000803
:040FFC00C501000823
:0C10000001000000100000000024F400BB
:0400000508000F11CF
:00000001FF
