:020000040800F2
:1000000000000220AD0E0008FD0E0008FD0E0008E5
:10001000FD0E0008FD0E0008FD0E000800000000A7
:10002000000000000000000000000000FD0E0008BD
:10003000FD0E000800000000FD0E0008D90C0008AD
:10004000FD0E0008FD0E0008FD0E0008FD0E000864
:10005000FD0E0008FD0E0008FD0E0008FD0E000854
:10006000FD0E0008FD0E0008FD0E0008FD0E000844
:10007000FD0E0008FD0E0008FD0E0008FD0E000834
:10008000FD0E0008FD0E0008FD0E0008FD0E000824
:10009000FD0E0008FD0E0008FD0E0008FD0E000814
:1000A000FD0E0008FD0E0008FD0E0008FD0E000804
:1000B000FD0E0008FD0E0008FD0E0008FD0E0008F4
:1000C000FD0E0008FD0E0008FD0E0008FD0E0008E4
:1000D000FD0E0008FD0E0008E90C0008FD0E0008EA
:1000E000FD0E0008FD0E0008FD0E0008FD0E0008C4
:1000F000FD0E0008FD0E0008FD0E0008FD0E0008B4
:10010000FD0E0008FD0E0008FD0E0008FD0E0008A3
:10011000FD0E0008FD0E0008FD0E0008FD0E000893
:10012000FD0E0008FD0E0008FD0E0008FD0E000883
:10013000FD0E00080000000000000000FD0E000899
:10014000FD0E0008FD0E0008FD0E0008FD0E000863
:10015000FD0E0008FD0E0008FD0E0008FD0E000853
:10016000FD0E0008FD0E0008FD0E0008FD0E000843
:10017000FD0E0008FD0E0008FD0E00080000000046
:1001800000000000FD0E000800000000000000005C
:10019000FD0E00080000000000000000FD0E000839
:1001A000000000000000000000000000FD0E00083C
:1001B000FD0E0008FD0E0008FD0E0008FD0E0008F3
:0401C000FD0E000828
:1001C40010B5054C237833B9044B13B10448AFF38D
:1001D40000800123237010BD0C00002000000000EB
:1001E400480F000808B5034B1BB103490348AFF39C
:1001F400008008BD0000000010000020480F000827
:1002040070B50E4B0E4D1B682A7806464FF47A7073
:10021400B0FBF2F0B3FBF0F000F094F808B90F2E45
:1002240001D9012070BD0446024631464FF0FF302B
:1002340000F046F86E60204670BD00BF0800002044
:100244000000002008B50B4B1A6842F400721A60D3
:100254001A6842F480621A601A6842F480721A6062
:10026400032000F01BF80020FFF7CAFF00F09EFDFA
:10027400002008BD003C0240034A044B11681B786F
:100284000B441360704700BF900000200000002062
:10029400014B1868704700BF90000020074AD368DC
:1002A4004FF6FF010B40000243F0BF6300F4E0602F
:1002B40043F400330343D360704700BF00ED00E014
:1002C400184BDB68C3F3022330B4C3F10705042DD4
:1002D40003F1040428BF0425062C19D9033B4FF06D
:1002E400FF349C4022EA04044FF0FF32AA4021EA82
:1002F400020101FA03F2224312010028D2B20ADBFE
:1003040000F1604000F5614080F8002330BC704784
:1003140000242346E8E7044B00F00F0003441A7658
:1003240030BC704700ED00E0FCEC00E000F01F0181
:1003340001234009024A8B4042F82030704700BF35
:1003440000E100E00138B0F1807F0ED2084B10B418
:10035400084C5860F02084F823000022072110463E
:100364009A6019605DF8044B70470120704700BF24
:1003740010E000E000ED00E0704700BF08B5FFF7B3
:10038400FBFF08BD90F83530022B03D08023436572
:10039400012070470268052380F83530136823F084
:1003A40001031360002070472DE9F04FDFF814C2F9
:1003B400DFF81482D1F800E083B0002503E00135B2
:1003C400102D00F094800123AB400EEA0304A342F5
:1003D400F5D14E6826F0100ABAF1020F00F08A80B7
:1003E4004FEA45090322D0F800B002FA09F2D243D9
:1003F40006F0030702EA0B0B07FA09F70AF1FF3AC2
:1004040047EA0B07BAF1010F076040F29980C76809
:100414008B683A4003FA09F31343C360F300CED563
:1004240000230193D8F8443043F48043C8F844309F
:10043400D8F8443025F0030202F1804203F48043EB
:1004440002F59C32019305F00307019BD2F8089052
:10045400BF000F23BB4029EA030A544B98421ED025
:1004640003F5806398427ED0514B984200F082801D
:10047400504B984200F085804F4B984200F08880A2
:100484004E4B984200F08B804D4B98420CBF4FF07E
:1004940006094FF0070909FA07F74AEA070AC2F8FA
:1004A40008A0DCF80030E243F70354BF13402343B1
:1004B400CCF80030DCF80430B70354BF13402343B6
:1004C400CCF80430DCF80830F70254BF134023435F
:1004D400CCF80830DCF80C30B60205F1010554BF45
:1004E40013402343102DCCF80C307FF46CAF03B0D1
:1004F400BDE8F08F4FEAD50900EB890905F007073D
:10050400D9F82020BF004FF00F0B0BFA07FB22EAAB
:100514000B0A0A69BA4042EA0A02C9F820204FEAE3
:1005240045090322D0F800A002FA09F2D24306F0EA
:10053400030702EA0A0A07FA09F747EA0A07076003
:10054400876807EA020ACF6807FA09F747EA0A0741
:100554008760D0F804A0C6F300172AEA0303AF406B
:100564001F43476053E74FF0010909FA07F74AEAC6
:10057400070A94E74FF0020909FA07F74AEA070A5B
:100584008DE74FF0030909FA07F74AEA070A86E7F5
:100594004FF0040909FA07F74AEA070A7FE74FF020
:1005A400050909FA07F74AEA070A78E70000024052
:1005B40000080240000C02400010024000140240F7
:1005C40000180240003C014000380240044B054A38
:1005D4009B680549C3F382230868D35CD8407047FD
:1005E40000380240700F000808000020044B054A40
:1005F4009B680549C3F342330868D35CD84070470D
:1006040000380240700F000808000020002800F0A5
:1006140004812DE9F84390F83930044603F0FF02D1
:10062400002B00F0F58023682669242284F8392001
:10063400D86820F40050D4E90225D8601969E0692B
:1006440021F4405129431961D9686569324321F481
:1006540016412A4321F00C0102430A43DA605A6925
:10066400A16922F440720A43B0F5004F5A61AA4AC4
:1006740071D0934200F0D38002F58062934200F07F
:10068400CE80FFF7A3FFA54F636800EB800000EB6B
:1006940080009B00B0FBF3F3A7FB03235B091D0160
:1006A400FFF794FF666800EB800000EB8000B60063
:1006B400B0FBF6F6FFF78AFF636800EB800000EBFF
:1006C40080009B00B0FBF3F3A7FB03235B094FF00F
:1006D400640909FB13631B013233A7FB03235B0982
:1006E40003F0F006FFF772FF626800EB800000EB96
:1006F40080009300B0FBF3F8FFF768FFD4E9002112
:1007040000EB80008B0000EB8000B0FBF3F3A7FB51
:1007140003135B0909FB13831B013233A7FB031388
:10072400C3F3431333432B449360136923F490437B
:100734001361536923F02A035361D36800252021F0
:1007440043F40053D3602846E56384F8391084F8F1
:100754003A10BDE8F883934200F09F8002F580626E
:10076400934200F09A80FFF731FF6C4F636800EB0F
:10077400800000EB80005B00B0FBF3F3A7FB0323D6
:100784005B091E01FFF722FF656800EB800000EBA8
:1007940080006D00B0FBF5F5FFF718FF636800EB10
:1007A400800000EB80005B00B0FBF3F3A7FB0323A6
:1007B4005B094FF0640909FB1353DB003233A7FBD9
:1007C40003231B0903F4F875FFF700FF626800EBCD
:1007D400800000EB80005300B0FBF3F8FFF7F6FE57
:1007E400D4E9002100EB80004B0000EB8000B0FB5B
:1007F400F3F3A7FB03135B0909FB1383DB00323319
:10080400A7FB0313C3F3421333442B4493608CE7D5
:1008140080F8382000F0EAFA05E701207047FFF776
:10082400E5FE3E4F636800EB800000EB80009B0018
:10083400B0FBF3F3A7FB03235B091D01FFF7D6FE0F
:10084400666800EB800000EB8000B600B0FBF6F6B3
:10085400FFF7CCFE636800EB800000EB80009B0098
:10086400B0FBF3F3A7FB03234FF064095B0909FB17
:1008740013631B013233A7FB03235B0903F0F00668
:10088400FFF7B4FE626800EB8000930000EB800089
:10089400B0FBF3F8FFF7AAFE30E7FFF7A7FE1F4F00
:1008A400636800EB800000EB80005B00B0FBF3F3B7
:1008B400A7FB03235B091E01FFF798FE656800EBA5
:1008C400800000EB80006D00B0FBF5F5FFF78EFEB5
:1008D400636800EB800000EB80005B00B0FBF3F387
:1008E400A7FB03234FF064095B0909FB1353DB00E7
:1008F4003233A7FB03231B0903F4F875FFF776FED5
:10090400626800EB8000530000EB8000B0FBF3F85A
:10091400FFF76CFE64E700BF001001401F85EB5138
:10092400F0B50E4690F83910202983B02DD1002E51
:100934002ED0019262B31F4690F83830012B044642
:1009440023D00023C3630121212380F8381080F8C9
:100954003930FFF79DFC019AA284E284226805469F
:10096400E38C9BB2002B39D0E08CA168013880B2B3
:10097400B1F5805FE08419D0781C3BD11068010682
:10098400FCD5337853600136EAE7022003B0F0BDAA
:10099400012003B0F0BD13681B060CD4002F33D024
:1009A400FFF776FC401B874222682DD3781CF2D1D6
:1009B40010680106FCD533882169C3F3080353602A
:1009C4000029E0D10236CBE713685B060BD4DFB114
:1009D400FFF75EFC401B8742226815D3781CF3D1D5
:1009E40013685906FCD52023002084F8393084F894
:1009F4003800CBE713681B06C3D42FB1FFF748FCBC
:100A0400401B87422268B7D2D36823F4D073D360E3
:100A14005369202123F0010300250320536184F846
:100A2400391084F8385084F83A1003B0F0BD00BF90
:100A340090F83A30202B1CD1E9B1E2B190F838306B
:100A4400012B16D030B400230468C2852225C36369
:100A540080F83A506569828545F00105816280F825
:100A640038306561E26842F490721846E26030BC46
:100A74007047022070470120704700BF704700BFD5
:100A8400704700BF03681A6870B516070446D86833
:100A9400596973D011F0010179D0D60705D5C50580
:100AA40003D5E56B45F00105E563560702F0020541
:100AB40040F19F8069B1E16B41F00201E16302F012
:100AC4000806002D40F09B801EB1E16B41F0080147
:100AD400E163E16B002959D0950628D5800626D517
:100AE40094F83A20222A22D1A1682069A26AB1F599
:100AF400805F00F0D580511C5B68A16208B103F0EF
:100B04007F0313702368E28D013A92B2E28572B9D1
:100B1400DA6822F49072DA605A69202122F0010224
:100B24005A61204684F83A1000F020F923685D6980
:100B3400E16B090703D415F0400500F09380DA68EF
:100B440022F49072DA605A69202122F001025A617B
:100B540084F83A105A6952065DD55A69606B22F0DE
:100B640040025A61002856D0544B0365FFF70AFC33
:100B740060B1606BBDE87040036D1847950609D5F8
:100B8400810607D594F83A20222A48D070BD10F483
:100B9400907F82D116060ED45106F7D54206F5D5BC
:100BA400DA68202122F04002DA60204684F8391005
:100BB400FFF764FF70BD0506EED594F83920212AAD
:100BC400E4D1A168226AB1F5805F50D0511C216242
:100BD40012785A60E28C013A92B2E284002AD5D1AA
:100BE400DA6822F08002DA60DA6842F04002DA6001
:100BF40070BD4DB100293FF46CAF02F00806E16B03
:100C040041F00401E1635FE716077FF562AF002955
:100C14007FF45BAF5DE72046FFF732FF70BDA1684C
:100C24002069A26AB1F5805F2AD0511C5B68A16279
:100C340008B103F07F031370E38D013B9BB2E3859E
:100C4400002BA3D12368DA6822F49072DA605A691F
:100C5400202122F001025A61204684F83A1000F063
:100C640085F870BD2046FFF70BFFE56370BD118862
:100C74002069C1F30801596050B902322262A9E720
:100C84005B6840B9C3F3080322F8023BA262D3E7CE
:100C9400013222629EE7DBB222F8013BA262CBE77B
:100CA400596828B9C1F3080122F8021BA2622AE795
:100CB400C9B222F8011BA26225E700BFC50C0008D7
:100CC40008B5836B0022DA851846DA84FFF7D8FE6C
:100CD40008BD00BF08B5FFF7CFFABDE80840FFF72D
:100CE4004DBB00BF0148FFF7CDBE00BF94000020FC
:100CF40038B50B4B0B4A1A604FF4E13500220C2433
:100D04004FF4004118465D605C61C3E90621C3E904
:100D140003229A60FFF77AFC00B1FEE738BD00BFFA
:100D2400940000200044004038B5FFF78BFAFFF729
:100D3400DFFF4FF0FF331B2209490A48FFF7F0FD9C
:100D440000B1FEE70849074801220D460446FFF7B3
:100D54006FFE012229462046FFF76AFEF9E700BF2D
:100D6400780F0008940000202800002010B50D4CD6
:100D7400618823784A1CA3F1610092B21928628029
:100D840003D80C44203B237110BD21440D2B0B715F
:100D9400FAD14FF0FF33211D0348FFF7C1FD0023B3
:100DA400638010BD280000209400002008B50320B3
:100DB400FFF774FA0C494B6A002243F4E0234B62B8
:100DC4006FF00B001146FFF77BFA002211466FF01B
:100DD4000A00FFF775FA002211466FF00900BDE81A
:100DE4000840FFF76DBA00BF00ED00E030B589B0F0
:100DF400174B184C00220192196C41F4003119640C
:100E0400196C01F40031019101990292196B41F0BE
:100E1400010119631B6B069203F001030293042280
:100E24000223204603A90392049301220723059277
:100E34000793029DFFF7B8FA082303A920460393FA
:100E4400FFF7B2FA2620FFF771FA09B030BD00BFF0
:100E540000380240000002401049114BD1F88820AC
:100E640042F4700210B4C1F888201A680D4C0020B6
:100E740042F001021A6098601A6822F0847222F427
:100E840080321A605C601A684FF0006422F4802299
:100E94001A60D8608C605DF8044B704700ED00E088
:100EA4000038024010300024DFF834D0002103E081
:100EB4000C4B5B58435004310B480C4B42189A427C
:100EC400F6D30B4A02E0002342F8043B094B9A4252
:100ED400F9D3FFF7C1FF00F011F8FFF725FF7047C2
:100EE400000002209C0F0008000000200C000020DD
:100EF4000C000020D4000020FEE7000070B50D4E69
:100F04000D4CA41BA4100025A54209D10B4E0C4C7A
:100F140000F018F8A41BA4100025A54205D170BD4B
:100F240056F8253098470135EEE756F825309847AE
:100F34000135F2E7940F0008940F0008940F00089D
:100F4400980F0008F8B500BFF8BC08BC9E4670476F
:0C0F5400F8B500BFF8BC08BC9E46704712
:100F60000000000000000000010203040607080959
:100F70000000000001020304546865206170706C79
:100F800069636174696F6E2069732072756E6E6932
:040F90006E670D007B
:040F9400E901000867
:040F9800C501000887
:0C0F9C0001000000100000000024F40020
:0400000508000EAD34
:00000001FF
